:100000000C9434000C943B010C9462010C9451004C
:100010000C9451000C9451000C9451000C9451001C
:100020000C9451000C9451000C9451000C9451000C
:100030000C9451000C9451000C9451000C945100FC
:100040000C9451000C9451000C94AE010C9451008E
:100050000C9451000C9451000C9451000C945100DC
:100060000C9451000C94510011241FBECFEFD4E02A
:10007000DEBFCDBF11E0A0E0B1E0ECE4F7E002C0EC
:1000800005900D92A239B107D9F711E0A2E9B1E0CC
:1000900001C01D92A839B107E1F70E940F020C942C
:1000A000A4030C940000382F8830E0F4662359F440
:1000B0002AB181E090E002C0880F991F3A95E2F7DB
:1000C000282B2AB90895613009F048C02AB181E08F
:1000D00090E002C0880F991F3A95E2F7809582233D
:1000E0008AB90895482F48504630D8F4662359F409
:1000F00024B181E090E002C0880F991F4A95E2F791
:10010000282B24B90895613049F524B181E090E0AD
:1001100002C0880F991F4A95E2F78095822384B91F
:1001200008953E503630D0F4662359F427B181E06B
:1001300090E002C0880F991F3A95E2F7282B27B963
:100140000895613059F427B181E090E002C0880F32
:10015000991F3A95E2F78095822387B90895382F41
:100160008830E0F4662359F42BB181E090E002C0BE
:10017000880F991F3A95E2F7282B2BB90895613023
:1001800009F048C02BB181E090E002C0880F991FB0
:100190003A95E2F7809582238BB90895482F48500D
:1001A0004630D8F4662359F425B181E090E002C0CE
:1001B000880F991F4A95E2F7282B25B908956130D9
:1001C00049F525B181E090E002C0880F991F4A955A
:1001D000E2F78095822385B908953E503630D0F4F9
:1001E000662359F428B181E090E002C0880F991F7E
:1001F0003A95E2F7282B28B90895613059F428B1CF
:1002000081E090E002C0880F991F3A95E2F780954F
:10021000822388B908950F931F93CF93DF93182FEC
:10022000062FEA018250823040F4812F61E00E9463
:100230005300812F60E00E94AF00002359F4D09357
:100240009501C09394018091690082608093690058
:10025000E89A0CC0013051F4D0939701C0939601F5
:1002600080916900846080936900E99ADF91CF9161
:100270001F910F9108951F920F920FB60F921124A4
:100280002F933F934F935F936F937F938F939F939E
:10029000AF93BF93EF93FF93E0919401F091950199
:1002A0000995FF91EF91BF91AF919F918F917F91B0
:1002B0006F915F914F913F912F910F900FBE0F90D3
:1002C0001F9018951F920F920FB60F9211242F9323
:1002D0003F934F935F936F937F938F939F93AF93CE
:1002E000BF93EF93FF93E0919601F09197010995E9
:1002F000FF91EF91BF91AF919F918F917F916F91FE
:100300005F914F913F912F910F900FBE0F901F90D3
:100310001895ECE7F0E0808180648083EAE7F0E004
:10032000808187688083089590917C00907F982BCE
:1003300090937C0080917A00806480937A00809111
:100340007A0086FDFCCF80917A00806180937A00EC
:100350002091780030917900C90108951F920F9281
:100360000FB60F9211248F938091C600813321F430
:1003700081E08093920107C08091C600803329F408
:100380001092920181E0809393018F910F900FBEA4
:100390000F901F901895E0E0F1E007C08091C00039
:1003A00085FFFCCF31969093C60090819923B1F7D9
:1003B0000895E9E1F1E007C08091C00085FFFCCF1E
:1003C00031969093C60090819923B1F708950F93C9
:1003D0001F93DF93CF9300D000D000D0CDB7DEB70E
:1003E0008E010F5F1F4FB8014AE050E00E945F038B
:1003F000F80107C08091C00085FFFCCF3196909333
:10040000C60090819923B1F726960FB6F894DEBF07
:100410000FBECDBFCF91DF911F910F910895CF9265
:10042000DF92EF92FF920F931F93CF93DF938DE0B4
:1004300060E00E9453001092C50087E68093C400DC
:1004400088E98093C10086E08093C200789482E0BE
:1004500060E04BEC51E00E940B0183E061E049ED6C
:1004600051E00E940B018CE060E00E9453008091FB
:100470007C00806480937C0080917A008768809300
:100480007A0048E8E42E43E1F42E30E9C32E31E04F
:10049000D32E80919301882349F180919201882382
:1004A00091F08DE060E00E94AF00E9E3F1E007C069
:1004B0008091C00085FFFCCF31969093C60090815B
:1004C0009923B1F711C08DE061E00E94AF00EDE427
:1004D000F1E007C08091C00085FFFCCF319690937A
:1004E000C60090819923B1F71092930180917C000E
:1004F000807F80937C0080917A00806480937A0072
:1005000080917A0086FDFCCF80917A008061809393
:100510007A00009178001091790080917C00807FB2
:10052000816080937C0080917A00806480937A005F
:1005300080917A0086FDFCCF80917A008061809363
:100540007A00C0917800D0917900E2E6F1E007C02E
:100550008091C00085FFFCCF31969093C6009081BA
:100560009923B1F7EAE6F1E007C08091C00085FF6A
:10057000FCCF31969093C60090819923B1F7C801C2
:100580000E94E701E0E7F1E007C08091C00085FF2D
:10059000FCCF31969093C60090819923B1F780E00B
:1005A00090E00E94E701ECE7F1E007C08091C00015
:1005B00085FFFCCF31969093C60090819923B1F7C7
:1005C0000E9DC0010F9D900D1E9D900D1124892F31
:1005D0008695869590E064E670E00E9490030E9404
:1005E000E701EEE7F1E007C08091C00085FFFCCF96
:1005F00031969093C60090819923B1F7E2E8F1E03B
:1006000007C08091C00085FFFCCF31969093C60053
:1006100090819923B1F7EAE6F1E007C08091C0002C
:1006200085FFFCCF31969093C60090819923B1F756
:10063000CE010E94E701E0E7F1E007C08091C00031
:1006400085FFFCCF31969093C60090819923B1F736
:10065000CE9DC001CF9D900DDE9D900D1124892F60
:1006600099278695869524E630E0AC01429FC0012B
:10067000439F900D529F900D11240E94E701ECE8DA
:10068000F1E007C08091C00085FFFCCF31969093C8
:10069000C60090819923B1F70C171D0718F48CE060
:1006A00060E002C08CE061E00E94AF0088E99AE35C
:1006B000F6013197F1F7019709F4EBCEF9CFFB0181
:1006C0009F01E8944230C4F04532B4F44A3029F432
:1006D00097FB1EF4909581959F4F642F77270E947A
:1006E0009003805D8A330CF0895D8193CB01009784
:1006F000A1F716F45DE251931082C9010C948003B6
:10070000DC01FC01672F71917723E1F7329704C078
:100710007C916D9370836291AE17BF07C8F3089503
:10072000AA1BBB1B51E107C0AA1FBB1FA617B70717
:1007300010F0A61BB70B881F991F5A95A9F7809533
:0C0740009095BC01CD010895F894FFCF06
:10074C00494E5430202D206F706164616A6163657D
:10075C00207A626F637A650A00494E5431202D204D
:10076C007A6D69616E61207374616E75206C6F6750
:10077C0069637A6E65676F0A0044696F6461204C27
:10078C00454420776C61637A6F6E610A0044696F2F
:10079C006461204C45442077796C61637A6F6E619B
:1007AC000A00464F544F202D20004144433A20006C
:1007BC00204E617069656369653A20002E002056F1
:1007CC000A00504F54454E43202D2000206D560AF0
:0207DC0000001B
:00000001FF
