:100000000C9434000C9449000C9449000C94490061
:100010000C9449000C9449000C9449000C9449003C
:100020000C9449000C9449000C9449000C9449002C
:100030000C9449000C9449000C9449000C9449001C
:100040000C9449000C9449000C9449000C9449000C
:100050000C9449000C9449000C9449000C944900FC
:100060000C9449000C94490011241FBECFEFD4E03A
:10007000DEBFCDBF12E0A0E0B1E0ECEDFBE002C0DE
:1000800005900D92A833B107D9F70E94F4000C94A3
:10009000EC050C940000382F8830E0F4662359F406
:1000A0002BB181E090E002C0880F991F3A95E2F7EA
:1000B000282B2BB90895613009F048C02BB181E09D
:1000C00090E002C0880F991F3A95E2F7809582234D
:1000D0008BB90895482F48504630D8F4662359F418
:1000E00025B181E090E002C0880F991F4A95E2F7A0
:1000F000282B25B90895613049F525B181E090E0BC
:1001000002C0880F991F4A95E2F78095822385B92E
:1001100008953E503630D0F4662359F428B181E07A
:1001200090E002C0880F991F3A95E2F7282B28B972
:100130000895613059F428B181E090E002C0880F41
:10014000991F3A95E2F78095822388B90895ECE7E4
:10015000F0E0808180648083EAE7F0E08081876856
:100160008083089590917C00907F982B90937C00E1
:1001700080917A00806480937A0080917A0086FD75
:10018000FCCF80917A00806180937A002091780082
:1001900030917900C90108950F931F93DF93CF9396
:1001A00000D000D000D0CDB7DEB78E010F5F1F4F5B
:1001B000B8014AE050E00E947005F80107C0809144
:1001C000C00085FFFCCF31969093C60090819923A3
:1001D000B1F726960FB6F894DEBF0FBECDBFCF9114
:1001E000DF911F910F910895CF92DF92EF92FF92CE
:1001F0000F931F93CF93DF93259A1092C50087E644
:100200008093C40088E98093C10086E08093C20097
:1002100080917C00806480937C0080917A00876864
:1002200080937A0028E8C22E23E1D22E90E9E92EAD
:1002300091E0F92E80917C00807F80937C008091FA
:100240007A00806480937A0080917A0086FDFCCFEA
:1002500080917A00806180937A00009178001091FB
:10026000790080917C00807F816080937C00809108
:100270007A00806480937A0080917A0086FDFCCFBA
:1002800080917A00806180937A00C0917800D0914B
:100290007900E0E0F1E007C08091C00085FFFCCF6D
:1002A00031969093C60090819923B1F7E8E0F1E090
:1002B00007C08091C00085FFFCCF31969093C600A7
:1002C00090819923B1F7C8010E94CC00EEE0F1E0E3
:1002D00007C08091C00085FFFCCF31969093C60087
:1002E00090819923B1F780E090E00E94CC00EAE190
:1002F000F1E007C08091C00085FFFCCF319690935C
:10030000C60090819923B1F70C9DC0010D9D900D01
:100310001C9D900D1124892F8695869590E064E6AA
:1003200070E00E94A1050E94CC00ECE1F1E007C062
:100330008091C00085FFFCCF31969093C6009081DC
:100340009923B1F7E0E2F1E007C08091C00085FF9A
:10035000FCCF31969093C60090819923B1F7E8E0E5
:10036000F1E007C08091C00085FFFCCF31969093EB
:10037000C60090819923B1F7CE010E94CC00EEE037
:10038000F1E007C08091C00085FFFCCF31969093CB
:10039000C60090819923B1F7CC9DB001CD9D700D21
:1003A000DC9D700D1124672F77276695669580E098
:1003B00090E00E945B0320E030E048EC52E40E94B1
:1003C0000D020E940703DC01CB010E94CC00EAE28F
:1003D000F1E007C08091C00085FFFCCF319690937B
:1003E000C60090819923B1F70C171D0718F48DE012
:1003F00060E002C08DE061E00E944B0088E893E17C
:10040000F7013197F1F70197D9F788E893E1F70100
:100410003197F1F70197D9F70DCFA0E2B0E0E3E112
:10042000F2E00C94B50569837A838B839C832D83DA
:100430003E834F835887CE010196BE01675F7F4F91
:100440000E94F804CE010596BE016F5E7F4F0E94A8
:10045000F8049985923088F089898230C8F0943008
:1004600019F4823051F404C0843029F4923081F4BC
:100470008FE291E0C6C0923049F420E09A858A89E3
:10048000981321E02A87CE010996BBC0823049F437
:1004900020E09A858A89981321E02A8BCE01419623
:1004A000B0C02D843E844F8458886D887E888F88A4
:1004B000988CEE24FF248701AA24BB24650140E028
:1004C00050E060E070E0E0E0F0E0C1018170907029
:1004D000892BE9F0E60CF71C081D191D9A01AB01E8
:1004E0002A0D3B1D4C1D5D1D80E090E0A0E0B0E0BA
:1004F000E614F7040805190520F481E090E0A0E077
:10050000B0E0BA01A901480F591F6A1F7B1FAA0C4E
:10051000BB1CCC1CDD1C97FE08C081E090E0A0E075
:10052000B0E0A82AB92ACA2ADB2A3196E032F105BE
:1005300049F0660C771C881C991C56944794379494
:100540002794C3CFFA85EA892B893C898B859C85C2
:10055000280F391F2E5F3F4F17C0CA01817090705E
:10056000892B61F016950795F794E79480E090E069
:10057000A0E0B0E8E82AF92A0A2B1B2B76956795AC
:10058000579547952F5F3F4F77FDE7CF0CC0440F3E
:10059000551F661F771F17FD4160EE0CFF1C001FE3
:1005A000111F21503040403090E0590790E069071A
:1005B00090E4790760F32B8F3C8FDB01CA018F77C2
:1005C0009070A070B07080349105A105B10561F400
:1005D00047FD0AC0E114F1040105110529F0405C52
:1005E0005F4F6F4F7F4F40781A8EFE1711F081E0FA
:1005F0008A8F4D8F5E8F6F8F78A383E0898FCE01B6
:1006000049960E942304A096E2E10C94D105ACE047
:10061000B0E0EDE0F3E00C94C50569837A838B8349
:100620009C83CE010196BE016B5F7F4F0E94F80450
:100630008D81823061F1823050F1843021F48E81DD
:10064000882351F12EC02F81388537FD20C06E815F
:100650002F3131051CF06623F9F023C08EE190E0C4
:10066000821B930B29853A854B855C8504C0569582
:100670004795379527958A95D2F76623B1F050951F
:100680004095309521953F4F4F4F5F4F0EC020E072
:1006900030E040E050E009C02FEF3FEF4FEF5FE761
:1006A00004C020E030E040E050E8B901CA012C96D7
:1006B000E2E00C94E105A8E0B0E0E1E6F3E00C94A0
:1006C000BD057B018C01611571058105910519F44A
:1006D00082E0898360C083E089838EE1C82ED12CBB
:1006E000DC82CB82ED82FE820F831887C801B701BE
:1006F0000E94D403FC013197F7FF3BC02227332728
:100700002E1B3F0B57016801022E04C0D694C794DC
:10071000B794A7940A94D2F740E050E060E070E00C
:1007200081E090E0A0E0B0E004C0880F991FAA1F0C
:10073000BB1F2A95D2F70197A109B1098E219F21EC
:10074000A023B1230097A105B10521F041E050E0BD
:1007500060E070E04A295B296C297D294D835E8326
:100760006F8378878EE190E08E1B9F0B9C838B8339
:1007700012C0309781F00E2E04C0EE0CFF1C001F3B
:10078000111F0A94D2F7ED82FE820F831887CE1ACA
:10079000DF0ADC82CB821A82CE0101960E942304FA
:1007A0002896EAE00C94D905EF92FF920F931F93DD
:1007B0007B018C0180E0E81680E0F80681E0080704
:1007C00080E0180788F48FEFE816F10401051105A1
:1007D00031F028F088E090E0A0E0B0E017C080E0C1
:1007E00090E0A0E0B0E012C080E0E81680E0F806FB
:1007F00080E0080781E0180728F088E190E0A0E099
:10080000B0E004C080E190E0A0E0B0E020E230E0A1
:1008100040E050E0281B390B4A0B5B0B04C01695D7
:100820000795F794E7948A95D2F7F701E95CFE4FB4
:100830008081281B310941095109C9011F910F917C
:10084000FF90EF900895DF92EF92FF920F931F9326
:10085000FC01E480F58006811781D180808182309F
:1008600048F480E090E0A0E1B0E0E82AF92A0A2B01
:100870001B2BA5C0843009F49FC0823021F4EE24E4
:10088000FF24870105C0E114F1040105110519F4E5
:10089000E0E0F0E096C0628173819FEF62387907F3
:1008A0000CF05BC022E83FEF261B370B2A313105E5
:1008B0002CF020E030E040E050E02AC0B801A70171
:1008C000022E04C076956795579547950A94D2F7FE
:1008D00081E090E0A0E0B0E004C0880F991FAA1F5B
:1008E000BB1F2A95D2F70197A109B1098E219F213B
:1008F000A023B1230097A105B10521F081E090E08C
:10090000A0E0B0E09A01AB01282B392B4A2B5B2BDE
:10091000DA01C9018F779070A070B07080349105B2
:10092000A105B10539F427FF09C0205C3F4F4F4FA7
:100930005F4F04C0215C3F4F4F4F5F4FE0E0F0E05E
:100940002030A0E03A07A0E04A07A0E45A0710F0E0
:10095000E1E0F0E079018A0127C06038710564F5B3
:10096000FB01E158FF4FD801C7018F779070A0704D
:10097000B07080349105A105B10539F4E7FE0DC0D2
:1009800080E490E0A0E0B0E004C08FE390E0A0E05D
:10099000B0E0E80EF91E0A1F1B1F17FF05C01695D1
:1009A0000795F794E794319687E016950795F794A5
:1009B000E7948A95D1F705C0EE24FF248701EFEF75
:1009C000F0E06E2F679566276795902F9F77D794F5
:1009D000DD24D7948E2F8695492F462B582F5D29DD
:1009E000B701CA011F910F91FF90EF90DF9008951A
:1009F000FC01DB01408151812281622F6F7770E021
:100A0000221F2227221F9381892F880F822B282FB4
:100A100030E0991F9927991F11969C9311972115E2
:100A20003105A9F5411551056105710511F482E003
:100A300037C082E89FEF13969C938E9312979A018A
:100A4000AB0167E0220F331F441F551F6A95D1F792
:100A500083E08C930DC0220F331F441F551F129645
:100A60008D919C911397019713969C938E93129757
:100A7000203080E0380780E0480780E4580758F3CA
:100A800014962D933D934D935C93179708952F3FA4
:100A9000310579F4411551056105710519F484E0BA
:100AA0008C93089564FF03C081E08C9312C01C9264
:100AB00010C02F57304013963C932E93129783E02B
:100AC0008C9387E0440F551F661F771F8A95D1F7D7
:100AD000706414964D935D936D937C93179708956E
:100AE000FB019F01E8944230C4F04532B4F44A302F
:100AF00029F497FB1EF4909581959F4F642F7727DB
:100B00000E94A105805D8A330CF0895D8193CB0141
:100B10000097A1F716F45DE251931082C9010C947D
:100B20009105DC01FC01672F71917723E1F7329782
:100B300004C07C916D9370836291AE17BF07C8F3B8
:100B40000895AA1BBB1B51E107C0AA1FBB1FA61714
:100B5000B70710F0A61BB70B881F991F5A95A9F766
:100B600080959095BC01CD0108952F923F924F92B0
:100B70005F926F927F928F929F92AF92BF92CF922D
:100B8000DF92EF92FF920F931F93CF93DF93CDB736
:100B9000DEB7CA1BDB0B0FB6F894DEBF0FBECDBFAE
:100BA00009942A88398848885F846E847D848C847F
:100BB0009B84AA84B984C884DF80EE80FD800C8188
:100BC0001B81AA81B981CE0FD11D0FB6F894DEBF6B
:100BD0000FBECDBFED010895F894FFCF464F544F9F
:100BE000202D20004144433A2000204E6170696569
:100BF0006369653A20002E0020560A00504F544584
:100C00004E43202D2000206D560A000000000000F9
:100C100000000000010202030303030404040404AF
:100C20000404040505050505050505050505050577
:100C30000505050606060606060606060606060657
:100C40000606060606060606060606060606060644
:100C50000606060707070707070707070707070727
:100C60000707070707070707070707070707070714
:100C70000707070707070707070707070707070704
:100C800007070707070707070707070707070707F4
:100C900007070708080808080808080808080808D7
:100CA00008080808080808080808080808080808C4
:100CB00008080808080808080808080808080808B4
:100CC00008080808080808080808080808080808A4
:100CD0000808080808080808080808080808080894
:100CE0000808080808080808080808080808080884
:100CF0000808080808080808080808080808080874
:100D00000808080808080808080808080808080863
:100D100008080800FFFFFFFFFFFFFFFFFFFFFFFFC7
:100D2000FFFFFFFFFFFFFFFFFFFFFFFFFFFFFFFFD3
:100D3000FFFFFFFFFFFFFFFFFFFFFFFFFFFFFFFFC3
:100D4000FFFFFFFFFFFFFFFFFFFFFFFFFFFFFFFFB3
:100D5000FFFFFFFFFFFFFFFFFFFFFFFFFFFFFFFFA3
:100D6000FFFFFFFFFFFFFFFFFFFFFFFFFFFFFFFF93
:100D7000FFFFFFFFFFFFFFFFFFFFFFFFFFFFFFFF83
:00000001FF